{
  "_format": "hh-sol-artifact-1",
  "contractName": "DefaiVault",
  "sourceName": "contracts/DefaiVault.sol",
  "abi": [
    {
      "inputs": [
        {
          "internalType": "contract IERC20",
          "name": "_asset",
          "type": "address"
        }
      ],
      "stateMutability": "nonpayable",
      "type": "constructor"
    },
    {
      "inputs": [],
      "name": "EnforcedPause",
      "type": "error"
    },
    {
      "inputs": [],
      "name": "ExpectedPause",
      "type": "error"
    },
    {
      "inputs": [
        {
          "internalType": "address",
          "name": "owner",
          "type": "address"
        }
      ],
      "name": "OwnableInvalidOwner",
      "type": "error"
    },
    {
      "inputs": [
        {
          "internalType": "address",
          "name": "account",
          "type": "address"
        }
      ],
      "name": "OwnableUnauthorizedAccount",
      "type": "error"
    },
    {
      "anonymous": false,
      "inputs": [
        {
          "indexed": true,
          "internalType": "address",
          "name": "user",
          "type": "address"
        },
        {
          "indexed": false,
          "internalType": "uint256",
          "name": "assets",
          "type": "uint256"
        },
        {
          "indexed": false,
          "internalType": "uint256",
          "name": "shares",
          "type": "uint256"
        }
      ],
      "name": "Deposit",
      "type": "event"
    },
    {
      "anonymous": false,
      "inputs": [
        {
          "indexed": true,
          "internalType": "address",
          "name": "user",
          "type": "address"
        },
        {
          "indexed": false,
          "internalType": "string",
          "name": "missionId",
          "type": "string"
        }
      ],
      "name": "MissionCompleted",
      "type": "event"
    },
    {
      "anonymous": false,
      "inputs": [
        {
          "indexed": true,
          "internalType": "address",
          "name": "previousOwner",
          "type": "address"
        },
        {
          "indexed": true,
          "internalType": "address",
          "name": "newOwner",
          "type": "address"
        }
      ],
      "name": "OwnershipTransferred",
      "type": "event"
    },
    {
      "anonymous": false,
      "inputs": [
        {
          "indexed": false,
          "internalType": "address",
          "name": "account",
          "type": "address"
        }
      ],
      "name": "Paused",
      "type": "event"
    },
    {
      "anonymous": false,
      "inputs": [
        {
          "indexed": true,
          "internalType": "address",
          "name": "referrer",
          "type": "address"
        },
        {
          "indexed": true,
          "internalType": "address",
          "name": "user",
          "type": "address"
        },
        {
          "indexed": false,
          "internalType": "uint256",
          "name": "amount",
          "type": "uint256"
        }
      ],
      "name": "Referred",
      "type": "event"
    },
    {
      "anonymous": false,
      "inputs": [
        {
          "indexed": false,
          "internalType": "address",
          "name": "account",
          "type": "address"
        }
      ],
      "name": "Unpaused",
      "type": "event"
    },
    {
      "anonymous": false,
      "inputs": [
        {
          "indexed": true,
          "internalType": "address",
          "name": "user",
          "type": "address"
        },
        {
          "indexed": false,
          "internalType": "uint256",
          "name": "assets",
          "type": "uint256"
        },
        {
          "indexed": false,
          "internalType": "uint256",
          "name": "shares",
          "type": "uint256"
        }
      ],
      "name": "Withdraw",
      "type": "event"
    },
    {
      "inputs": [],
      "name": "asset",
      "outputs": [
        {
          "internalType": "contract IERC20",
          "name": "",
          "type": "address"
        }
      ],
      "stateMutability": "view",
      "type": "function"
    },
    {
      "inputs": [
        {
          "internalType": "uint256",
          "name": "assets",
          "type": "uint256"
        }
      ],
      "name": "deposit",
      "outputs": [
        {
          "internalType": "uint256",
          "name": "mintShares",
          "type": "uint256"
        }
      ],
      "stateMutability": "nonpayable",
      "type": "function"
    },
    {
      "inputs": [],
      "name": "depositCap",
      "outputs": [
        {
          "internalType": "uint256",
          "name": "",
          "type": "uint256"
        }
      ],
      "stateMutability": "view",
      "type": "function"
    },
    {
      "inputs": [],
      "name": "feeBps",
      "outputs": [
        {
          "internalType": "uint256",
          "name": "",
          "type": "uint256"
        }
      ],
      "stateMutability": "view",
      "type": "function"
    },
    {
      "inputs": [],
      "name": "owner",
      "outputs": [
        {
          "internalType": "address",
          "name": "",
          "type": "address"
        }
      ],
      "stateMutability": "view",
      "type": "function"
    },
    {
      "inputs": [],
      "name": "pause",
      "outputs": [],
      "stateMutability": "nonpayable",
      "type": "function"
    },
    {
      "inputs": [],
      "name": "paused",
      "outputs": [
        {
          "internalType": "bool",
          "name": "",
          "type": "bool"
        }
      ],
      "stateMutability": "view",
      "type": "function"
    },
    {
      "inputs": [
        {
          "internalType": "address",
          "name": "referrer",
          "type": "address"
        },
        {
          "internalType": "uint256",
          "name": "amount",
          "type": "uint256"
        }
      ],
      "name": "recordReferral",
      "outputs": [],
      "stateMutability": "nonpayable",
      "type": "function"
    },
    {
      "inputs": [],
      "name": "renounceOwnership",
      "outputs": [],
      "stateMutability": "nonpayable",
      "type": "function"
    },
    {
      "inputs": [
        {
          "internalType": "uint256",
          "name": "cap",
          "type": "uint256"
        }
      ],
      "name": "setDepositCap",
      "outputs": [],
      "stateMutability": "nonpayable",
      "type": "function"
    },
    {
      "inputs": [
        {
          "internalType": "uint256",
          "name": "_bps",
          "type": "uint256"
        }
      ],
      "name": "setFee",
      "outputs": [],
      "stateMutability": "nonpayable",
      "type": "function"
    },
    {
      "inputs": [
        {
          "internalType": "address",
          "name": "",
          "type": "address"
        }
      ],
      "name": "shares",
      "outputs": [
        {
          "internalType": "uint256",
          "name": "",
          "type": "uint256"
        }
      ],
      "stateMutability": "view",
      "type": "function"
    },
    {
      "inputs": [],
      "name": "totalAssets",
      "outputs": [
        {
          "internalType": "uint256",
          "name": "",
          "type": "uint256"
        }
      ],
      "stateMutability": "view",
      "type": "function"
    },
    {
      "inputs": [],
      "name": "totalShares",
      "outputs": [
        {
          "internalType": "uint256",
          "name": "",
          "type": "uint256"
        }
      ],
      "stateMutability": "view",
      "type": "function"
    },
    {
      "inputs": [
        {
          "internalType": "address",
          "name": "newOwner",
          "type": "address"
        }
      ],
      "name": "transferOwnership",
      "outputs": [],
      "stateMutability": "nonpayable",
      "type": "function"
    },
    {
      "inputs": [],
      "name": "unpause",
      "outputs": [],
      "stateMutability": "nonpayable",
      "type": "function"
    },
    {
      "inputs": [
        {
          "internalType": "uint256",
          "name": "burnShares",
          "type": "uint256"
        }
      ],
      "name": "withdraw",
      "outputs": [
        {
          "internalType": "uint256",
          "name": "assetsOut",
          "type": "uint256"
        }
      ],
      "stateMutability": "nonpayable",
      "type": "function"
    }
  ],
  "bytecode": "0x60a06040523480156200001157600080fd5b50604051620019a2380380620019a2833981810160405281019062000037919062000244565b33600073ffffffffffffffffffffffffffffffffffffffff168173ffffffffffffffffffffffffffffffffffffffff1603620000ad5760006040517f1e4fbdf7000000000000000000000000000000000000000000000000000000008152600401620000a4919062000287565b60405180910390fd5b620000be816200010260201b60201c565b508073ffffffffffffffffffffffffffffffffffffffff1660808173ffffffffffffffffffffffffffffffffffffffff1681525050600060038190555050620002a4565b60008060009054906101000a900473ffffffffffffffffffffffffffffffffffffffff169050816000806101000a81548173ffffffffffffffffffffffffffffffffffffffff021916908373ffffffffffffffffffffffffffffffffffffffff1602179055508173ffffffffffffffffffffffffffffffffffffffff168173ffffffffffffffffffffffffffffffffffffffff167f8be0079c531659141344cd1fd0a4f28419497f9722a3daafe3b4186f6b6457e060405160405180910390a35050565b600080fd5b600073ffffffffffffffffffffffffffffffffffffffff82169050919050565b6000620001f882620001cb565b9050919050565b60006200020c82620001eb565b9050919050565b6200021e81620001ff565b81146200022a57600080fd5b50565b6000815190506200023e8162000213565b92915050565b6000602082840312156200025d576200025c620001c6565b5b60006200026d848285016200022d565b91505092915050565b6200028181620001eb565b82525050565b60006020820190506200029e600083018462000276565b92915050565b6080516116cd620002d5600039600081816103040152818161050e0152818161064101526109cb01526116cd6000f3fe608060405234801561001057600080fd5b506004361061010b5760003560e01c806369fe0e2d116100a25780638da5cb5b116100715780638da5cb5b14610248578063b6b55f2514610266578063ce7c2ac214610296578063dbd5edc7146102c6578063f2fde38b146102e45761010b565b806369fe0e2d146101fc578063715018a6146102185780638456cb5914610222578063866512031461022c5761010b565b80633a98ef39116100de5780633a98ef391461019a5780633f4ba83a146101b8578063473685e3146101c25780635c975abb146101de5761010b565b806301e1d1141461011057806324a9d8531461012e5780632e1a7d4d1461014c57806338d52e0f1461017c575b600080fd5b610118610300565b6040516101259190610eab565b60405180910390f35b6101366103a1565b6040516101439190610eab565b60405180910390f35b61016660048036038101906101619190610ef7565b6103a7565b6040516101739190610eab565b60405180910390f35b61018461063f565b6040516101919190610fa3565b60405180910390f35b6101a2610663565b6040516101af9190610eab565b60405180910390f35b6101c0610669565b005b6101dc60048036038101906101d79190610ffc565b61067b565b005b6101e6610794565b6040516101f39190611057565b60405180910390f35b61021660048036038101906102119190610ef7565b6107aa565b005b610220610801565b005b61022a610815565b005b61024660048036038101906102419190610ef7565b610827565b005b610250610839565b60405161025d9190611081565b60405180910390f35b610280600480360381019061027b9190610ef7565b610862565b60405161028d9190610eab565b60405180910390f35b6102b060048036038101906102ab919061109c565b610b55565b6040516102bd9190610eab565b60405180910390f35b6102ce610b6d565b6040516102db9190610eab565b60405180910390f35b6102fe60048036038101906102f9919061109c565b610b73565b005b60007f000000000000000000000000000000000000000000000000000000000000000073ffffffffffffffffffffffffffffffffffffffff166370a08231306040518263ffffffff1660e01b815260040161035b9190611081565b602060405180830381865afa158015610378573d6000803e3d6000fd5b505050506040513d601f19601f8201168201806040525081019061039c91906110de565b905090565b60035481565b60006103b1610bf9565b600082116103f4576040517f08c379a00000000000000000000000000000000000000000000000000000000081526004016103eb90611168565b60405180910390fd5b81600260003373ffffffffffffffffffffffffffffffffffffffff1673ffffffffffffffffffffffffffffffffffffffff168152602001908152602001600020541015610476576040517f08c379a000000000000000000000000000000000000000000000000000000000815260040161046d906111d4565b60405180910390fd5b6000610480610300565b905060015481846104919190611223565b61049b9190611294565b915082600260003373ffffffffffffffffffffffffffffffffffffffff1673ffffffffffffffffffffffffffffffffffffffff16815260200190815260200160002060008282546104ec91906112c5565b92505081905550826001600082825461050591906112c5565b925050819055507f000000000000000000000000000000000000000000000000000000000000000073ffffffffffffffffffffffffffffffffffffffff1663a9059cbb33846040518363ffffffff1660e01b81526004016105679291906112f9565b6020604051808303816000875af1158015610586573d6000803e3d6000fd5b505050506040513d601f19601f820116820180604052508101906105aa919061134e565b6105e9576040517f08c379a00000000000000000000000000000000000000000000000000000000081526004016105e0906113c7565b60405180910390fd5b3373ffffffffffffffffffffffffffffffffffffffff167ff279e6a1f5e320cca91135676d9cb6e44ca8a08c0b88342bcdb1144f6511b56883856040516106319291906113e7565b60405180910390a250919050565b7f000000000000000000000000000000000000000000000000000000000000000081565b60015481565b610671610c3a565b610679610cc1565b565b610683610bf9565b600073ffffffffffffffffffffffffffffffffffffffff168273ffffffffffffffffffffffffffffffffffffffff16141580156106ec57503373ffffffffffffffffffffffffffffffffffffffff168273ffffffffffffffffffffffffffffffffffffffff1614155b61072b576040517f08c379a00000000000000000000000000000000000000000000000000000000081526004016107229061145c565b60405180910390fd5b3373ffffffffffffffffffffffffffffffffffffffff168273ffffffffffffffffffffffffffffffffffffffff167fb2b62c7418475f601c89a2f8de70e27613387343dfde61d4166e06424bfef0f5836040516107889190610eab565b60405180910390a35050565b60008060149054906101000a900460ff16905090565b6107b2610c3a565b6103e88111156107f7576040517f08c379a00000000000000000000000000000000000000000000000000000000081526004016107ee906114c8565b60405180910390fd5b8060038190555050565b610809610c3a565b6108136000610d23565b565b61081d610c3a565b610825610de7565b565b61082f610c3a565b8060048190555050565b60008060009054906101000a900473ffffffffffffffffffffffffffffffffffffffff16905090565b600061086c610bf9565b600082116108af576040517f08c379a00000000000000000000000000000000000000000000000000000000081526004016108a690611168565b60405180910390fd5b6000600454111561091257600454826108c6610300565b6108d091906114e8565b1115610911576040517f08c379a000000000000000000000000000000000000000000000000000000000815260040161090890611568565b60405180910390fd5b5b600061091c610300565b905060006001540361093e57620f4240836109379190611223565b915061095a565b806001548461094d9190611223565b6109579190611294565b91505b81600260003373ffffffffffffffffffffffffffffffffffffffff1673ffffffffffffffffffffffffffffffffffffffff16815260200190815260200160002060008282546109a991906114e8565b9250508190555081600160008282546109c291906114e8565b925050819055507f000000000000000000000000000000000000000000000000000000000000000073ffffffffffffffffffffffffffffffffffffffff166323b872dd3330866040518463ffffffff1660e01b8152600401610a2693929190611588565b6020604051808303816000875af1158015610a45573d6000803e3d6000fd5b505050506040513d601f19601f82011682018060405250810190610a69919061134e565b610aa8576040517f08c379a0000000000000000000000000000000000000000000000000000000008152600401610a9f9061160b565b60405180910390fd5b3373ffffffffffffffffffffffffffffffffffffffff167f90890809c654f11d6e72a28fa60149770a0d11ec6c92319d6ceb2bb0a4ea1a158484604051610af09291906113e7565b60405180910390a26305f5e1008310610b4f573373ffffffffffffffffffffffffffffffffffffffff167ee51df91d6555cde1df34d66c8268b1ceba3ebf975a55399da793a25492df09604051610b4690611677565b60405180910390a25b50919050565b60026020528060005260406000206000915090505481565b60045481565b610b7b610c3a565b600073ffffffffffffffffffffffffffffffffffffffff168173ffffffffffffffffffffffffffffffffffffffff1603610bed5760006040517f1e4fbdf7000000000000000000000000000000000000000000000000000000008152600401610be49190611081565b60405180910390fd5b610bf681610d23565b50565b610c01610794565b15610c38576040517fd93c066500000000000000000000000000000000000000000000000000000000815260040160405180910390fd5b565b610c42610e4a565b73ffffffffffffffffffffffffffffffffffffffff16610c60610839565b73ffffffffffffffffffffffffffffffffffffffff1614610cbf57610c83610e4a565b6040517f118cdaa7000000000000000000000000000000000000000000000000000000008152600401610cb69190611081565b60405180910390fd5b565b610cc9610e52565b60008060146101000a81548160ff0219169083151502179055507f5db9ee0a495bf2e6ff9c91a7834c1ba4fdd244a5e8aa4e537bd38aeae4b073aa610d0c610e4a565b604051610d199190611081565b60405180910390a1565b60008060009054906101000a900473ffffffffffffffffffffffffffffffffffffffff169050816000806101000a81548173ffffffffffffffffffffffffffffffffffffffff021916908373ffffffffffffffffffffffffffffffffffffffff1602179055508173ffffffffffffffffffffffffffffffffffffffff168173ffffffffffffffffffffffffffffffffffffffff167f8be0079c531659141344cd1fd0a4f28419497f9722a3daafe3b4186f6b6457e060405160405180910390a35050565b610def610bf9565b6001600060146101000a81548160ff0219169083151502179055507f62e78cea01bee320cd4e420270b5ea74000d11b0c9f74754ebdbfc544b05a258610e33610e4a565b604051610e409190611081565b60405180910390a1565b600033905090565b610e5a610794565b610e90576040517f8dfc202b00000000000000000000000000000000000000000000000000000000815260040160405180910390fd5b565b6000819050919050565b610ea581610e92565b82525050565b6000602082019050610ec06000830184610e9c565b92915050565b600080fd5b610ed481610e92565b8114610edf57600080fd5b50565b600081359050610ef181610ecb565b92915050565b600060208284031215610f0d57610f0c610ec6565b5b6000610f1b84828501610ee2565b91505092915050565b600073ffffffffffffffffffffffffffffffffffffffff82169050919050565b6000819050919050565b6000610f69610f64610f5f84610f24565b610f44565b610f24565b9050919050565b6000610f7b82610f4e565b9050919050565b6000610f8d82610f70565b9050919050565b610f9d81610f82565b82525050565b6000602082019050610fb86000830184610f94565b92915050565b6000610fc982610f24565b9050919050565b610fd981610fbe565b8114610fe457600080fd5b50565b600081359050610ff681610fd0565b92915050565b6000806040838503121561101357611012610ec6565b5b600061102185828601610fe7565b925050602061103285828601610ee2565b9150509250929050565b60008115159050919050565b6110518161103c565b82525050565b600060208201905061106c6000830184611048565b92915050565b61107b81610fbe565b82525050565b60006020820190506110966000830184611072565b92915050565b6000602082840312156110b2576110b1610ec6565b5b60006110c084828501610fe7565b91505092915050565b6000815190506110d881610ecb565b92915050565b6000602082840312156110f4576110f3610ec6565b5b6000611102848285016110c9565b91505092915050565b600082825260208201905092915050565b7f7a65726f00000000000000000000000000000000000000000000000000000000600082015250565b600061115260048361110b565b915061115d8261111c565b602082019050919050565b6000602082019050818103600083015261118181611145565b9050919050565b7f696e73756666696369656e740000000000000000000000000000000000000000600082015250565b60006111be600c8361110b565b91506111c982611188565b602082019050919050565b600060208201905081810360008301526111ed816111b1565b9050919050565b7f4e487b7100000000000000000000000000000000000000000000000000000000600052601160045260246000fd5b600061122e82610e92565b915061123983610e92565b925082820261124781610e92565b9150828204841483151761125e5761125d6111f4565b5b5092915050565b7f4e487b7100000000000000000000000000000000000000000000000000000000600052601260045260246000fd5b600061129f82610e92565b91506112aa83610e92565b9250826112ba576112b9611265565b5b828204905092915050565b60006112d082610e92565b91506112db83610e92565b92508282039050818111156112f3576112f26111f4565b5b92915050565b600060408201905061130e6000830185611072565b61131b6020830184610e9c565b9392505050565b61132b8161103c565b811461133657600080fd5b50565b60008151905061134881611322565b92915050565b60006020828403121561136457611363610ec6565b5b600061137284828501611339565b91505092915050565b7f7472616e73666572000000000000000000000000000000000000000000000000600082015250565b60006113b160088361110b565b91506113bc8261137b565b602082019050919050565b600060208201905081810360008301526113e0816113a4565b9050919050565b60006040820190506113fc6000830185610e9c565b6114096020830184610e9c565b9392505050565b7f6261642072656600000000000000000000000000000000000000000000000000600082015250565b600061144660078361110b565b915061145182611410565b602082019050919050565b6000602082019050818103600083015261147581611439565b9050919050565b7f6d61782031302500000000000000000000000000000000000000000000000000600082015250565b60006114b260078361110b565b91506114bd8261147c565b602082019050919050565b600060208201905081810360008301526114e1816114a5565b9050919050565b60006114f382610e92565b91506114fe83610e92565b9250828201905080821115611516576115156111f4565b5b92915050565b7f6361700000000000000000000000000000000000000000000000000000000000600082015250565b600061155260038361110b565b915061155d8261151c565b602082019050919050565b6000602082019050818103600083015261158181611545565b9050919050565b600060608201905061159d6000830186611072565b6115aa6020830185611072565b6115b76040830184610e9c565b949350505050565b7f7472616e7366657246726f6d0000000000000000000000000000000000000000600082015250565b60006115f5600c8361110b565b9150611600826115bf565b602082019050919050565b60006020820190508181036000830152611624816115e8565b9050919050565b7f4445504f5349545f313030000000000000000000000000000000000000000000600082015250565b6000611661600b8361110b565b915061166c8261162b565b602082019050919050565b6000602082019050818103600083015261169081611654565b905091905056fea26469706673582212205bb22b743a80fb2c253bd33d30dae527088beab6f9e87769796d50eaeb7fe93d64736f6c63430008180033",
  "linkReferences": {},
  "deployedLinkReferences": {}
}