{
  "_format": "hh-sol-artifact-1",
  "contractName": "DefaiVault",
  "sourceName": "contracts/DefaiVault.sol",
  "abi": [
    {
      "inputs": [
        {
          "internalType": "address",
          "name": "_asset",
          "type": "address"
        },
        {
          "internalType": "address",
          "name": "_feeRecipient",
          "type": "address"
        }
      ],
      "stateMutability": "nonpayable",
      "type": "constructor"
    },
    {
      "inputs": [
        {
          "internalType": "address",
          "name": "owner",
          "type": "address"
        }
      ],
      "name": "OwnableInvalidOwner",
      "type": "error"
    },
    {
      "inputs": [
        {
          "internalType": "address",
          "name": "account",
          "type": "address"
        }
      ],
      "name": "OwnableUnauthorizedAccount",
      "type": "error"
    },
    {
      "anonymous": false,
      "inputs": [
        {
          "indexed": true,
          "internalType": "address",
          "name": "user",
          "type": "address"
        },
        {
          "indexed": false,
          "internalType": "uint256",
          "name": "assets",
          "type": "uint256"
        },
        {
          "indexed": false,
          "internalType": "uint256",
          "name": "sharesMinted",
          "type": "uint256"
        }
      ],
      "name": "Deposit",
      "type": "event"
    },
    {
      "anonymous": false,
      "inputs": [
        {
          "indexed": true,
          "internalType": "address",
          "name": "previousOwner",
          "type": "address"
        },
        {
          "indexed": true,
          "internalType": "address",
          "name": "newOwner",
          "type": "address"
        }
      ],
      "name": "OwnershipTransferred",
      "type": "event"
    },
    {
      "anonymous": false,
      "inputs": [
        {
          "indexed": true,
          "internalType": "address",
          "name": "newStrategy",
          "type": "address"
        }
      ],
      "name": "StrategyUpdated",
      "type": "event"
    },
    {
      "anonymous": false,
      "inputs": [
        {
          "indexed": true,
          "internalType": "address",
          "name": "user",
          "type": "address"
        },
        {
          "indexed": false,
          "internalType": "uint256",
          "name": "assets",
          "type": "uint256"
        },
        {
          "indexed": false,
          "internalType": "uint256",
          "name": "sharesBurned",
          "type": "uint256"
        }
      ],
      "name": "Withdraw",
      "type": "event"
    },
    {
      "inputs": [],
      "name": "asset",
      "outputs": [
        {
          "internalType": "contract IERC20",
          "name": "",
          "type": "address"
        }
      ],
      "stateMutability": "view",
      "type": "function"
    },
    {
      "inputs": [
        {
          "internalType": "uint256",
          "name": "assets",
          "type": "uint256"
        }
      ],
      "name": "deposit",
      "outputs": [
        {
          "internalType": "uint256",
          "name": "minted",
          "type": "uint256"
        }
      ],
      "stateMutability": "nonpayable",
      "type": "function"
    },
    {
      "inputs": [],
      "name": "feeBps",
      "outputs": [
        {
          "internalType": "uint16",
          "name": "",
          "type": "uint16"
        }
      ],
      "stateMutability": "view",
      "type": "function"
    },
    {
      "inputs": [],
      "name": "feeRecipient",
      "outputs": [
        {
          "internalType": "address",
          "name": "",
          "type": "address"
        }
      ],
      "stateMutability": "view",
      "type": "function"
    },
    {
      "inputs": [],
      "name": "owner",
      "outputs": [
        {
          "internalType": "address",
          "name": "",
          "type": "address"
        }
      ],
      "stateMutability": "view",
      "type": "function"
    },
    {
      "inputs": [
        {
          "internalType": "uint256",
          "name": "assets",
          "type": "uint256"
        }
      ],
      "name": "previewDeposit",
      "outputs": [
        {
          "internalType": "uint256",
          "name": "",
          "type": "uint256"
        }
      ],
      "stateMutability": "view",
      "type": "function"
    },
    {
      "inputs": [
        {
          "internalType": "uint256",
          "name": "shares_",
          "type": "uint256"
        }
      ],
      "name": "previewWithdraw",
      "outputs": [
        {
          "internalType": "uint256",
          "name": "",
          "type": "uint256"
        }
      ],
      "stateMutability": "view",
      "type": "function"
    },
    {
      "inputs": [],
      "name": "renounceOwnership",
      "outputs": [],
      "stateMutability": "nonpayable",
      "type": "function"
    },
    {
      "inputs": [
        {
          "internalType": "uint16",
          "name": "_bps",
          "type": "uint16"
        }
      ],
      "name": "setFee",
      "outputs": [],
      "stateMutability": "nonpayable",
      "type": "function"
    },
    {
      "inputs": [
        {
          "internalType": "address",
          "name": "to",
          "type": "address"
        }
      ],
      "name": "setFeeRecipient",
      "outputs": [],
      "stateMutability": "nonpayable",
      "type": "function"
    },
    {
      "inputs": [
        {
          "internalType": "address",
          "name": "_strategy",
          "type": "address"
        }
      ],
      "name": "setStrategy",
      "outputs": [],
      "stateMutability": "nonpayable",
      "type": "function"
    },
    {
      "inputs": [
        {
          "internalType": "address",
          "name": "",
          "type": "address"
        }
      ],
      "name": "shares",
      "outputs": [
        {
          "internalType": "uint256",
          "name": "",
          "type": "uint256"
        }
      ],
      "stateMutability": "view",
      "type": "function"
    },
    {
      "inputs": [],
      "name": "strategy",
      "outputs": [
        {
          "internalType": "contract IStrategy",
          "name": "",
          "type": "address"
        }
      ],
      "stateMutability": "view",
      "type": "function"
    },
    {
      "inputs": [],
      "name": "totalAssets",
      "outputs": [
        {
          "internalType": "uint256",
          "name": "",
          "type": "uint256"
        }
      ],
      "stateMutability": "view",
      "type": "function"
    },
    {
      "inputs": [],
      "name": "totalShares",
      "outputs": [
        {
          "internalType": "uint256",
          "name": "",
          "type": "uint256"
        }
      ],
      "stateMutability": "view",
      "type": "function"
    },
    {
      "inputs": [
        {
          "internalType": "address",
          "name": "newOwner",
          "type": "address"
        }
      ],
      "name": "transferOwnership",
      "outputs": [],
      "stateMutability": "nonpayable",
      "type": "function"
    },
    {
      "inputs": [
        {
          "internalType": "uint256",
          "name": "shares_",
          "type": "uint256"
        }
      ],
      "name": "withdraw",
      "outputs": [
        {
          "internalType": "uint256",
          "name": "assetsOut",
          "type": "uint256"
        }
      ],
      "stateMutability": "nonpayable",
      "type": "function"
    }
  ],
  "bytecode": "0x60a06040523480156200001157600080fd5b5060405162001e6a38038062001e6a833981810160405281019062000037919062000335565b33600073ffffffffffffffffffffffffffffffffffffffff168173ffffffffffffffffffffffffffffffffffffffff1603620000ad5760006040517f1e4fbdf7000000000000000000000000000000000000000000000000000000008152600401620000a491906200038d565b60405180910390fd5b620000be816200020760201b60201c565b50600073ffffffffffffffffffffffffffffffffffffffff168273ffffffffffffffffffffffffffffffffffffffff16141580156200012a5750600073ffffffffffffffffffffffffffffffffffffffff168173ffffffffffffffffffffffffffffffffffffffff1614155b6200016c576040517f08c379a000000000000000000000000000000000000000000000000000000000815260040162000163906200040b565b60405180910390fd5b8173ffffffffffffffffffffffffffffffffffffffff1660808173ffffffffffffffffffffffffffffffffffffffff168152505080600460026101000a81548173ffffffffffffffffffffffffffffffffffffffff021916908373ffffffffffffffffffffffffffffffffffffffff1602179055506032600460006101000a81548161ffff021916908361ffff16021790555050506200042d565b60008060009054906101000a900473ffffffffffffffffffffffffffffffffffffffff169050816000806101000a81548173ffffffffffffffffffffffffffffffffffffffff021916908373ffffffffffffffffffffffffffffffffffffffff1602179055508173ffffffffffffffffffffffffffffffffffffffff168173ffffffffffffffffffffffffffffffffffffffff167f8be0079c531659141344cd1fd0a4f28419497f9722a3daafe3b4186f6b6457e060405160405180910390a35050565b600080fd5b600073ffffffffffffffffffffffffffffffffffffffff82169050919050565b6000620002fd82620002d0565b9050919050565b6200030f81620002f0565b81146200031b57600080fd5b50565b6000815190506200032f8162000304565b92915050565b600080604083850312156200034f576200034e620002cb565b5b60006200035f858286016200031e565b925050602062000372858286016200031e565b9150509250929050565b6200038781620002f0565b82525050565b6000602082019050620003a460008301846200037c565b92915050565b600082825260208201905092915050565b7f7a65726f00000000000000000000000000000000000000000000000000000000600082015250565b6000620003f3600483620003aa565b91506200040082620003bb565b602082019050919050565b600060208201905081810360008301526200042681620003e4565b9050919050565b6080516119f762000473600039600081816103510152818161068b0152818161085e0152818161093601528181610aec01528181610bf10152610d5901526119f76000f3fe608060405234801561001057600080fd5b506004361061010b5760003560e01c8063715018a6116100a2578063b6b55f2511610071578063b6b55f2514610284578063ce7c2ac2146102b4578063e74b981b146102e4578063ef8b30f714610300578063f2fde38b146103305761010b565b8063715018a6146102225780638da5cb5b1461022c5780638e0055531461024a578063a8c62e76146102665761010b565b806333a100ca116100de57806333a100ca146101ac57806338d52e0f146101c85780633a98ef39146101e657806346904840146102045761010b565b806301e1d114146101105780630a28a4771461012e57806324a9d8531461015e5780632e1a7d4d1461017c575b600080fd5b61011861034c565b604051610125919061128d565b60405180910390f35b610148600480360381019061014391906112d9565b6104e7565b604051610155919061128d565b60405180910390f35b61016661056a565b6040516101739190611323565b60405180910390f35b610196600480360381019061019191906112d9565b61057e565b6040516101a3919061128d565b60405180910390f35b6101c660048036038101906101c1919061139c565b610a32565b005b6101d0610bef565b6040516101dd9190611428565b60405180910390f35b6101ee610c13565b6040516101fb919061128d565b60405180910390f35b61020c610c19565b6040516102199190611452565b60405180910390f35b61022a610c3f565b005b610234610c53565b6040516102419190611452565b60405180910390f35b610264600480360381019061025f9190611499565b610c7c565b005b61026e610ced565b60405161027b91906114e7565b60405180910390f35b61029e600480360381019061029991906112d9565b610d13565b6040516102ab919061128d565b60405180910390f35b6102ce60048036038101906102c9919061139c565b610fe9565b6040516102db919061128d565b60405180910390f35b6102fe60048036038101906102f9919061139c565b611001565b005b61031a600480360381019061031591906112d9565b61104d565b604051610327919061128d565b60405180910390f35b61034a6004803603810190610345919061139c565b61109b565b005b6000807f000000000000000000000000000000000000000000000000000000000000000073ffffffffffffffffffffffffffffffffffffffff166370a08231306040518263ffffffff1660e01b81526004016103a89190611452565b602060405180830381865afa1580156103c5573d6000803e3d6000fd5b505050506040513d601f19601f820116820180604052508101906103e99190611517565b9050600073ffffffffffffffffffffffffffffffffffffffff16600160009054906101000a900473ffffffffffffffffffffffffffffffffffffffff1673ffffffffffffffffffffffffffffffffffffffff16146104e057600160009054906101000a900473ffffffffffffffffffffffffffffffffffffffff1673ffffffffffffffffffffffffffffffffffffffff166301e1d1146040518163ffffffff1660e01b8152600401602060405180830381865afa1580156104ae573d6000803e3d6000fd5b505050506040513d601f19601f820116820180604052508101906104d29190611517565b816104dd9190611573565b90505b8091505090565b600080600354905060006104f961034c565b905060008211801561050b5750818411155b61054a576040517f08c379a000000000000000000000000000000000000000000000000000000000815260040161054190611604565b60405180910390fd5b8181856105579190611624565b6105619190611695565b92505050919050565b600460009054906101000a900461ffff1681565b600080821180156105ce575081600260003373ffffffffffffffffffffffffffffffffffffffff1673ffffffffffffffffffffffffffffffffffffffff1681526020019081526020016000205410155b61060d576040517f08c379a000000000000000000000000000000000000000000000000000000000815260040161060490611712565b60405180910390fd5b610616826104e7565b905081600260003373ffffffffffffffffffffffffffffffffffffffff1673ffffffffffffffffffffffffffffffffffffffff16815260200190815260200160002060008282546106679190611732565b9250508190555081600360008282546106809190611732565b9250508190555060007f000000000000000000000000000000000000000000000000000000000000000073ffffffffffffffffffffffffffffffffffffffff166370a08231306040518263ffffffff1660e01b81526004016106e29190611452565b602060405180830381865afa1580156106ff573d6000803e3d6000fd5b505050506040513d601f19601f820116820180604052508101906107239190611517565b905081811080156107835750600073ffffffffffffffffffffffffffffffffffffffff16600160009054906101000a900473ffffffffffffffffffffffffffffffffffffffff1673ffffffffffffffffffffffffffffffffffffffff1614155b1561082257600160009054906101000a900473ffffffffffffffffffffffffffffffffffffffff1673ffffffffffffffffffffffffffffffffffffffff1662f714ce82846107d19190611732565b306040518363ffffffff1660e01b81526004016107ef929190611766565b600060405180830381600087803b15801561080957600080fd5b505af115801561081d573d6000803e3d6000fd5b505050505b6000612710600460009054906101000a900461ffff1661ffff16846108479190611624565b6108519190611695565b90506000811115610934577f000000000000000000000000000000000000000000000000000000000000000073ffffffffffffffffffffffffffffffffffffffff1663a9059cbb600460029054906101000a900473ffffffffffffffffffffffffffffffffffffffff16836040518363ffffffff1660e01b81526004016108d992919061178f565b6020604051808303816000875af11580156108f8573d6000803e3d6000fd5b505050506040513d601f19601f8201168201806040525081019061091c91906117f0565b61092557600080fd5b80836109319190611732565b92505b7f000000000000000000000000000000000000000000000000000000000000000073ffffffffffffffffffffffffffffffffffffffff1663a9059cbb33856040518363ffffffff1660e01b815260040161098f92919061178f565b6020604051808303816000875af11580156109ae573d6000803e3d6000fd5b505050506040513d601f19601f820116820180604052508101906109d291906117f0565b6109db57600080fd5b3373ffffffffffffffffffffffffffffffffffffffff167ff279e6a1f5e320cca91135676d9cb6e44ca8a08c0b88342bcdb1144f6511b5688486604051610a2392919061181d565b60405180910390a25050919050565b610a3a611121565b600073ffffffffffffffffffffffffffffffffffffffff168173ffffffffffffffffffffffffffffffffffffffff1603610aa9576040517f08c379a0000000000000000000000000000000000000000000000000000000008152600401610aa090611892565b60405180910390fd5b80600160006101000a81548173ffffffffffffffffffffffffffffffffffffffff021916908373ffffffffffffffffffffffffffffffffffffffff1602179055507f000000000000000000000000000000000000000000000000000000000000000073ffffffffffffffffffffffffffffffffffffffff1663095ea7b3827fffffffffffffffffffffffffffffffffffffffffffffffffffffffffffffffff6040518363ffffffff1660e01b8152600401610b6592919061178f565b6020604051808303816000875af1158015610b84573d6000803e3d6000fd5b505050506040513d601f19601f82011682018060405250810190610ba891906117f0565b508073ffffffffffffffffffffffffffffffffffffffff167f4da9c22c924692646a21cf1f423781ae3285198dc22e8a6912835d3272b90b3c60405160405180910390a250565b7f000000000000000000000000000000000000000000000000000000000000000081565b60035481565b600460029054906101000a900473ffffffffffffffffffffffffffffffffffffffff1681565b610c47611121565b610c5160006111a8565b565b60008060009054906101000a900473ffffffffffffffffffffffffffffffffffffffff16905090565b610c84611121565b6101f48161ffff161115610ccd576040517f08c379a0000000000000000000000000000000000000000000000000000000008152600401610cc4906118fe565b60405180910390fd5b80600460006101000a81548161ffff021916908361ffff16021790555050565b600160009054906101000a900473ffffffffffffffffffffffffffffffffffffffff1681565b6000808211610d57576040517f08c379a0000000000000000000000000000000000000000000000000000000008152600401610d4e90611892565b60405180910390fd5b7f000000000000000000000000000000000000000000000000000000000000000073ffffffffffffffffffffffffffffffffffffffff166323b872dd3330856040518463ffffffff1660e01b8152600401610db49392919061191e565b6020604051808303816000875af1158015610dd3573d6000803e3d6000fd5b505050506040513d601f19601f82011682018060405250810190610df791906117f0565b610e36576040517f08c379a0000000000000000000000000000000000000000000000000000000008152600401610e2d906119a1565b60405180910390fd5b600073ffffffffffffffffffffffffffffffffffffffff16600160009054906101000a900473ffffffffffffffffffffffffffffffffffffffff1673ffffffffffffffffffffffffffffffffffffffff1614610f1a57600160009054906101000a900473ffffffffffffffffffffffffffffffffffffffff1673ffffffffffffffffffffffffffffffffffffffff1663b6b55f25836040518263ffffffff1660e01b8152600401610ee7919061128d565b600060405180830381600087803b158015610f0157600080fd5b505af1158015610f15573d6000803e3d6000fd5b505050505b610f238261104d565b905080600260003373ffffffffffffffffffffffffffffffffffffffff1673ffffffffffffffffffffffffffffffffffffffff1681526020019081526020016000206000828254610f749190611573565b925050819055508060036000828254610f8d9190611573565b925050819055503373ffffffffffffffffffffffffffffffffffffffff167f90890809c654f11d6e72a28fa60149770a0d11ec6c92319d6ceb2bb0a4ea1a158383604051610fdc92919061181d565b60405180910390a2919050565b60026020528060005260406000206000915090505481565b611009611121565b80600460026101000a81548173ffffffffffffffffffffffffffffffffffffffff021916908373ffffffffffffffffffffffffffffffffffffffff16021790555050565b6000806003549050600061105f61034c565b905060008214806110705750600081145b611090578082856110819190611624565b61108b9190611695565b611092565b835b92505050919050565b6110a3611121565b600073ffffffffffffffffffffffffffffffffffffffff168173ffffffffffffffffffffffffffffffffffffffff16036111155760006040517f1e4fbdf700000000000000000000000000000000000000000000000000000000815260040161110c9190611452565b60405180910390fd5b61111e816111a8565b50565b61112961126c565b73ffffffffffffffffffffffffffffffffffffffff16611147610c53565b73ffffffffffffffffffffffffffffffffffffffff16146111a65761116a61126c565b6040517f118cdaa700000000000000000000000000000000000000000000000000000000815260040161119d9190611452565b60405180910390fd5b565b60008060009054906101000a900473ffffffffffffffffffffffffffffffffffffffff169050816000806101000a81548173ffffffffffffffffffffffffffffffffffffffff021916908373ffffffffffffffffffffffffffffffffffffffff1602179055508173ffffffffffffffffffffffffffffffffffffffff168173ffffffffffffffffffffffffffffffffffffffff167f8be0079c531659141344cd1fd0a4f28419497f9722a3daafe3b4186f6b6457e060405160405180910390a35050565b600033905090565b6000819050919050565b61128781611274565b82525050565b60006020820190506112a2600083018461127e565b92915050565b600080fd5b6112b681611274565b81146112c157600080fd5b50565b6000813590506112d3816112ad565b92915050565b6000602082840312156112ef576112ee6112a8565b5b60006112fd848285016112c4565b91505092915050565b600061ffff82169050919050565b61131d81611306565b82525050565b60006020820190506113386000830184611314565b92915050565b600073ffffffffffffffffffffffffffffffffffffffff82169050919050565b60006113698261133e565b9050919050565b6113798161135e565b811461138457600080fd5b50565b60008135905061139681611370565b92915050565b6000602082840312156113b2576113b16112a8565b5b60006113c084828501611387565b91505092915050565b6000819050919050565b60006113ee6113e96113e48461133e565b6113c9565b61133e565b9050919050565b6000611400826113d3565b9050919050565b6000611412826113f5565b9050919050565b61142281611407565b82525050565b600060208201905061143d6000830184611419565b92915050565b61144c8161135e565b82525050565b60006020820190506114676000830184611443565b92915050565b61147681611306565b811461148157600080fd5b50565b6000813590506114938161146d565b92915050565b6000602082840312156114af576114ae6112a8565b5b60006114bd84828501611484565b91505092915050565b60006114d1826113f5565b9050919050565b6114e1816114c6565b82525050565b60006020820190506114fc60008301846114d8565b92915050565b600081519050611511816112ad565b92915050565b60006020828403121561152d5761152c6112a8565b5b600061153b84828501611502565b91505092915050565b7f4e487b7100000000000000000000000000000000000000000000000000000000600052601160045260246000fd5b600061157e82611274565b915061158983611274565b92508282019050808211156115a1576115a0611544565b5b92915050565b600082825260208201905092915050565b7f6261642073686172657300000000000000000000000000000000000000000000600082015250565b60006115ee600a836115a7565b91506115f9826115b8565b602082019050919050565b6000602082019050818103600083015261161d816115e1565b9050919050565b600061162f82611274565b915061163a83611274565b925082820261164881611274565b9150828204841483151761165f5761165e611544565b5b5092915050565b7f4e487b7100000000000000000000000000000000000000000000000000000000600052601260045260246000fd5b60006116a082611274565b91506116ab83611274565b9250826116bb576116ba611666565b5b828204905092915050565b7f696e73756666696369656e740000000000000000000000000000000000000000600082015250565b60006116fc600c836115a7565b9150611707826116c6565b602082019050919050565b6000602082019050818103600083015261172b816116ef565b9050919050565b600061173d82611274565b915061174883611274565b92508282039050818111156117605761175f611544565b5b92915050565b600060408201905061177b600083018561127e565b6117886020830184611443565b9392505050565b60006040820190506117a46000830185611443565b6117b1602083018461127e565b9392505050565b60008115159050919050565b6117cd816117b8565b81146117d857600080fd5b50565b6000815190506117ea816117c4565b92915050565b600060208284031215611806576118056112a8565b5b6000611814848285016117db565b91505092915050565b6000604082019050611832600083018561127e565b61183f602083018461127e565b9392505050565b7f7a65726f00000000000000000000000000000000000000000000000000000000600082015250565b600061187c6004836115a7565b915061188782611846565b602082019050919050565b600060208201905081810360008301526118ab8161186f565b9050919050565b7f6d61782035250000000000000000000000000000000000000000000000000000600082015250565b60006118e86006836115a7565b91506118f3826118b2565b602082019050919050565b60006020820190508181036000830152611917816118db565b9050919050565b60006060820190506119336000830186611443565b6119406020830185611443565b61194d604083018461127e565b949350505050565b7f70756c6c206661696c6564000000000000000000000000000000000000000000600082015250565b600061198b600b836115a7565b915061199682611955565b602082019050919050565b600060208201905081810360008301526119ba8161197e565b905091905056fea26469706673582212203e05ba9bb9a82f6ba94572845928e9a60058c0e4ab5fc176bcf2df3fbf5c5e8364736f6c63430008180033",
  "linkReferences": {},
  "deployedLinkReferences": {}
}